:100000000C943E010C9450010C9450010C942E2D34
:100010000C94F62C0C9450010C9450010C9450014B
:100020000C9450010C9450010C9450010C94732DBD
:100030000C9450010C9450010C9450010C945001FC
:100040000C945D2D0C9450010C94AA2F0C944A3002
:100050000C9450010C9450010C9450010C945001DC
:100060000C9450010C945001084AD73B3BCE016ED2
:1000700084BCBFFDC12F3D6C74319ABD56833DDAFF
:100080003D00C77F11BED9E4BB4C3E916BAAAABE0E
:10009000000000803F05A84CCDB2D44EB93836A937
:1000A000020C50B9918688083CA6AAAA2ABE000074
:1000B00000803F000D0A4772626C20312E316620AD
:1000C0005B27242720666F722068656C705D0D0ABF
:1000D00000244E005B4F50543A005B5645523A3173
:1000E0002E31662E32303137303731373A005B549B
:1000F0004C4F3A005B4739323A0033300032380017
:100100005B4700204700204D002053002046002080
:10011000540033382E005B47433A47005B484C504D
:100120003A242420242320244720244920244E201C
:1001300024783D76616C20244E783D6C696E652094
:10014000244A3D6C696E652024534C502024432082
:100150002458202448207E2021203F206374726C84
:100160002D785D0D0A00414C41524D3A007C413AD8
:10017000007C4F763A007C57434F3A007C506E3AF1
:10018000007C46533A007C42663A007C57506F73BD
:100190003A007C4D506F733A00536C6565700044B3
:1001A0006F6F723A00436865636B00416C61726DFA
:1001B00000486F6D65004A6F6700486F6C643A00D5
:1001C00052756E0049646C65000D0A005B50524226
:1001D0003A006572726F723A006F6B0D0A00536CD1
:1001E000656570696E6700526573746F72696E67DA
:1001F000207370696E646C6500526573746F726908
:100200006E672064656661756C74730050676D205D
:10021000456E6400436865636B204C696D69747357
:1002200000436865636B20446F6F720044697361BB
:10023000626C656400456E61626C65640043617563
:1002400074696F6E3A20556E6C6F636B656400273E
:100250002448277C2724582720746F20756E6C6FE4
:10026000636B00526573657420746F20636F6E74E6
:10027000696E7565005B4D53473A000011241FBE3F
:10028000CFEFD8E0DEBFCDBF27E0A0E0B1E001C0F6
:100290001D92A136B207E1F70E9474300C94B63A71
:1002A0000C9400008F929F92AF92BF92CF92DF92F8
:1002B000EF92FF920F931F93CF93DF937C016B011B
:1002C000DC01EC91F0E0EF5EF84F8081EF018D32C0
:1002D00029F52296818101E0912CF0E010E020E0E8
:1002E00030E0A9015E01E0EDE80FEA3018F5FF5FAC
:1002F000F930E0F491101150A5E0B0E00E948F3A7F
:100300009B01AC01220F331F441F551F2E0F311DBF
:10031000411D511D2196D5018C91E4CF8B3219F0EE
:10032000219600E0D9CF22968181FBCF9110F2CFA8
:100330001F5FF0CFEE3F29F4911003C099249394EE
:10034000E9CFFF23F9F0CA01B9010E948E374B01B2
:100350005C0120E030E0A9010E94DC3681112BC055
:10036000002309F445C0B7FAB094B7F8B094F60189
:1003700080829182A282B382C151D740C150F701DD
:10038000C083F1E08F2FDF91CF911F910F91FF90EC
:10039000EF90DF90CF90BF90AF909F908F90089597
:1003A0002AE037ED43E25CE3C501B4010E943E3927
:1003B0004B015C011E5F1F3F9CF31F3F59F42DEC66
:1003C0003CEC4CEC5DE3C501B4010E943E394B01AD
:1003D0005C01C6CF112321F220E030E040E251E47D
:1003E000C501B4010E943E394B015C011150F2CFAE
:1003F000D6018D929D92AD92BC921397BDCF2FB72F
:10040000F89490911606892B809316062FBF0895B5
:100410002FB7F89490911506892B809315062FBF5E
:1004200008959FB7F894809314069FBF08959FB7CF
:10043000F8942091130680958223809313069FBF22
:1004400008952FB7F89490911306892B8093130683
:100450002FBF0895AF92BF92CF92DF92EF92FF929B
:100460000F931F93CF93DF93EC0106E616E05C0138
:100470008CE0A80EB11CC990D990E990F99020E0C9
:1004800030E0A901C701B6010E94FE381816DCF061
:10049000F80121913191419151918F01C701B6012C
:1004A0000E94DC3687FD0FC0CA15DB0521F780E00E
:1004B000DF91CF911F910F91FF90EF90DF90CF9040
:1004C000BF90AF90089581E0F3CF8F929F92AF924B
:1004D000BF92CF92DF92EF92FF920F931F93CF9331
:1004E000DF93EB0122E4E22E26E0F22E8C016B0179
:1004F0008CE0C80ED11C6991799189919991F7018D
:1005000081909190A190B1907F010E949037A501B8
:1005100094010E94E636F80161937193819391935F
:100520008F01CC15DD0539F7DF91CF911F910F9128
:10053000FF90EF90DF90CF90BF90AF909F908F9003
:10054000089596B1892F877039F0892F8095817031
:1005500091FF826092FF8460089510921706909137
:10056000870697FD03C090E290931706882331F029
:100570008091170690E2892780931706089593B11A
:100580008091870686FF0BC0967159F091FB8827F2
:1005900080F992FD8260907129F0846008959095B1
:1005A000F3CF80E00895EBE6F0E08081897E8083E0
:1005B000E8E6F0E080818E7F8083089584B1897EB3
:1005C00084B985B1866185B98091870683FF0BC0A8
:1005D00080916B00866180936B00809168008160E0
:1005E0008093680008950C94D3026F927F928F924B
:1005F0009F92AF92BF92CF92DF92EF92FF920F93B2
:100600001F93CF93DF93EB018C015B018CE0A80E6D
:10061000B11C89E9682E96E7792E26E9822E3EE7FD
:10062000932EC990D990E990F99020E030E0A9018B
:10063000C701B6010E94DC368823B9F0A7019601F4
:10064000F80160817181828193810E94E6366B019D
:100650007C01E894F7F89301A401C701B6010E9458
:10066000FE38181614F0360147010C5F1F4FCA15EB
:10067000DB05B9F6B301C401DF91CF911F910F9152
:10068000FF90EF90DF90CF90BF90AF909F908F90B2
:100690007F906F900895E7EFF5E0A8E1B6E04D9107
:1006A0005D916D917C911397408351836283738335
:1006B00014964D915D916D917C911797448355836C
:1006C0006683778318968D919D910D90BC91A02D96
:1006D00080879187A287B3870895BF92CF92DF92D8
:1006E000EF92FF920F931F93CF93DF937C01FC0156
:1006F00002A513A5D4A5C5A5818980FF33C060914B
:10070000390670E090E080E00E9490372AE037EDF3
:1007100043E25CE30E943E399B01AC01B8018D2F9E
:100720009C2F0E943E398B01D82FC92F20E030E04A
:1007300040E85FE3B8018D2F9C2F0E94FE38181609
:1007400024F000E010E0D0E8CFE3B8018D2F9C2F1B
:10075000DF91CF911F910F91FF90EF90DF90CF909D
:10076000BF90089582FD17C06091380670E090E058
:1007700080E00E9490372AE037ED43E25CE30E947C
:100780003E399B01AC01B8018D2F9C2F0E943E3950
:100790008B01D82FC92FF701B6A0C7A0D0A4F1A410
:1007A00098014D2F5C2F6B2D7C2D8D2D9F2D0E9440
:1007B000DC3687FFBBCF0B2D1C2DDD2DCF2DB6CF0B
:1007C0008091D5029091F605981739F022E3829F27
:1007D000C00111248A529D4F089590E080E0089551
:1007E000F894F999FECF92BD81BD81E08FBB20B511
:1007F000862F8227082E000C990B50E08623952324
:10080000892B49F084E16F3F11F060BD84E08FBB1C
:10081000F99A789408952617E1F360BD84E2F7CF42
:100820009F92AF92BF92CF92DF92EF92FF920F937F
:100830001F93CF93DF935C018A017B01E40EF51EC9
:10084000EB01912C6C01C61AD70ACE018C0D9D1DAF
:1008500021E0911007C0292D990C330B232F221F63
:100860002227221F6991962E920E0E94F003CE1528
:10087000DF0559F7692DC501800F911FDF91CF91D9
:100880001F910F91FF90EF90DF90CF90BF90AF90AE
:100890009F900C94F0036AE090E080E00E94F003E7
:1008A00045E550E062E476E081E090E00C941004CD
:1008B000F999FECF92BD81BD81E08FBB80B50895CF
:1008C0009F92AF92BF92CF92DF92EF92FF920F93DF
:1008D0001F93CF93DF935B018A017C01E40EF51E29
:1008E000EC01912C6B01C81AD90AC6018C0F9D1F0F
:1008F0000E94580421E0911007C0292D990C330B58
:10090000232F221F2227221F982E920E8993CE1565
:10091000DF0559F7C501800F911F0E94580421E09F
:1009200030E0891511F030E020E0C901DF91CF916E
:100930001F910F91FF90EF90DF90CF90BF90AF90FD
:100940009F900895CF93DF93C091D102D091D202AE
:100950002097C9F08091A20281608093A2026091E9
:10096000B8027091B9028091BA029091BB029B01CA
:10097000AC010E943E396A8B7B8B8C8B9D8B1092D5
:10098000D2021092D102DF91CF9108952F923F921F
:100990004F925F926F927F928F929F92AF92BF928F
:1009A000CF92DF92EF92FF920F931F93CF93DF933B
:1009B00000D000D0CDB7DEB70091F605002309F4D2
:1009C00086C009833981315039831091D3021317BE
:1009D00009F466C0C32ED12CE2E33E9FC00111246E
:1009E0009C012A523D4F7901F90176888788908CC5
:1009F000A18C628D738D848D958D9B01AC010E94BD
:100A0000E735F701268D378D40A151A10E943E396F
:100A1000B62EE72EF82E9B83262F372F482F592FDF
:100A2000672D782D892D9A2D0E94DC3687FF03C013
:100A3000B72C7401AB8282E38C9DF0018D9DF00D8B
:100A40001124EA52FD4F8B2D9E2DAF2DBB81828B41
:100A5000938BA48BB58BF9818F2FF11101C080E1AD
:100A6000FF24FA94F80E3090D5021F1133C01311F1
:100A700002C00E94A204E2E31E9FC00111248A5218
:100A80009D4F9A83898333243394310EF0E13F12D2
:100A900001C0312C82E3282E031185C01093D302AC
:100AA0000F900F900F900F90DF91CF911F910F91AA
:100AB000FF90EF90DF90CF90BF90AF909F908F907E
:100AC0007F906F905F904F903F902F90089520E11E
:100AD000298378CF298182E3289F900111242A520B
:100AE0003D4F3C832B8322E3E22E8F2C912CFE9CE6
:100AF000C0011124FC01EA52FD4FFA83E983F11091
:100B000002C090E1F92EFA94F31002C00E94A204F0
:100B1000E89CC001E99C900D11249C012A523D4F94
:100B20006901F90146885788608C718CA301920194
:100B300062897389848995890E94DC36882339F11A
:100B4000F601628D738D848D958D9B01AC010E94A1
:100B5000E735F601268D378D40A151A10E943E391F
:100B6000EB81FC8122893389448955890E94E735CC
:100B70004B015C01AC019B01C301B2010E94FE3834
:100B8000F60118165CF4828A938AA48AB58A2981B0
:100B90003A813C832B831F11A8CF6DCF428A538AA1
:100BA000648A758AF4CFC32CD12C329CC0011124E5
:100BB0009C012A523D4F7901E981FA81428853888C
:100BC00064887588F90182889388A488B588A5010E
:100BD0009401C301B2010E94DC3687FF26C0E9817F
:100BE000FA81628D738D848D958D9B01AC010E947D
:100BF000E735E981FA81268D378D40A151A10E9408
:100C00003E39A30192010E94E7352B013C01AC0162
:100C10009B01C501B4010E94FE38181634F4F70197
:100C2000428A538A648A758A132D2C9CF0012D9C6C
:100C3000F00D1124EA52FD4F26893789408D518DE0
:100C400062897389848995890E94DC36811101C08B
:100C5000132D3394F0E13F1201C0312CFA82E98266
:100C60001BCF90917306492F80917406282F90FF17
:100C700011C098E080FF10C084E041FD906221FD2A
:100C8000806142FD906822FD80649093F201809320
:100C9000F301089590E0EECF80E0EFCF80918706DA
:100CA00082FF13C0289A8091F20180930302809101
:100CB00072068250990B880F819580930202809171
:100CC0006F00826080936F0008952898ECCF0E9497
:100CD000E003892B19F082E00C9421020895E09141
:100CE000040191E09E0F993609F490E020916E0185
:100CF000291761F0F0E0EB5FFE4F808390930401D1
:100D00008091C10080628093C10004C020911306CD
:100D100024FFECCF0895CF93DF93C1E1D7E0899111
:100D2000811103C0DF91CF9108950E946F06F7CF24
:100D30008F929F92AF92BF92CF92DF92EF92FF92EB
:100D40000F931F93CF93DF93CDB7DEB72D970FB6D9
:100D5000F894DEBF0FBECDBF6B017C01042F20E0F5
:100D600030E0A9010E94DC3687FF07C08DE20E94B7
:100D70006F06F7FAF094F7F8F094102F123008F09D
:100D800054C000FF0AC020E030E040E251E4C70157
:100D9000B6010E943E396B017C0120E030E040E06A
:100DA0005FE3C701B6010E94E7350E94583710E0A3
:100DB0003AE0832E912CA12CB12CE12FF0E06115AB
:100DC000710581059105E9F581E090E08C0F9D1F8B
:100DD000E80FF91F80E3101708F445C0101309C08D
:100DE000E1E0F0E0EC0FFD1FE10FF11D80E38083F7
:100DF0001F5FEE24E394F12CEC0EFD1EE10EF11CBE
:100E0000111134C02D960FB6F894DEBF0FBECDBFC2
:100E1000DF91CF911F910F91FF90EF90DF90CF90D6
:100E2000BF90AF909F908F90089520E030E048EC05
:100E300052E4C701B6010E943E396B017C01125099
:100E40009DCFEE24E394F12CEC0EFD1EEE0EFF1E62
:100E5000A50194010E94673A605DF7016083B901C2
:100E6000CA011F5FAACF1F5F8193B5CF101303C0C4
:100E70008EE20E946F06F70182917F010E946F0649
:100E80001150BECF2091870640E020FF07C02BE81D
:100E900032E441E25DE30E943E3941E00C94980661
:100EA0002091870643E020FF07C02BE832E441E2AF
:100EB0005DE30E943E3944E00C9498060F931F9323
:100EC000CF938C01C0E0F801619171918191919172
:100ED0008F010E945007C23019F08CE20E946F0609
:100EE000CF5FC33081F7CF911F910F910895CF93BA
:100EF000DF93843658F06AE00E94473AC0E3C90F96
:100F00006AE00E94473AD0E3D90F04C0C0E0D0E0C5
:100F10008A30B0F7805D0E946F06DD2319F08D2FB7
:100F20000E946F06CC2329F08C2FDF91CF910C9477
:100F30006F06DF91CF910895CF93DF93EC01FE010F
:100F400084912196811103C0DF91CF9108950E9471
:100F50006F06F5CF89EC91E00C949C07CF93C82FD6
:100F600082ED91E00E949C078C2F0E947707CF9121
:100F70000C94AA07811104C089ED91E00C949C07A0
:100F80000C94AE07CF92DF92EF92FF92CF93DF9354
:100F9000D82F6A017B01C22F84E20E946F068D2F39
:100FA0000E9477078DE30E946F064C2FC701B601A0
:100FB0000E949806DF91CF91FF90EF90DF90CF9045
:100FC0000C94AA07CF93DF93D82FC62F84E20E94F8
:100FD0006F068D2F0E9477078DE30E946F068C2F7E
:100FE0000E947707DF91CF910C94AA07EF92FF92AE
:100FF0000F931F93CF93DF936091720670E080E0B0
:101000000E94E2076091750670E081E00E94E207AD
:101010006091730670E082E00E94E20760917406BE
:1010200070E083E00E94E2076091870662FB66271A
:1010300060F970E084E00E94E2076091870666FB39
:10104000662760F970E085E00E94E20780918706DC
:10105000082E000C990B692F661F6627661F70E02B
:1010600086E00E94E2076091760670E08AE00E94C6
:10107000E207409177065091780660917906709169
:101080007A0623E08BE00E94C20740917B065091D4
:101090007C0660917D0670917E0623E08CE00E94C4
:1010A000C20760918706617070E08DE00E94E207E0
:1010B0006091870665FB662760F970E084E10E9415
:1010C000E2076091870663FB662760F970E085E1BF
:1010D0000E94E207609187066295617070E086E188
:1010E0000E94E2076091880670E087E10E94E207B3
:1010F0004091890650918A0660918B0670918C060A
:1011000023E088E10E94C20740918D0650918E062F
:1011100060918F067091900623E089E10E94C207DA
:1011200060919106709192068AE10E94E2074091D7
:10113000930650919406609195067091960623E06F
:101140008BE10E94C20740917F065091800660911A
:1011500081067091820620E08EE10E94C2074091D4
:10116000830650918406609185067091860620E082
:101170008FE10E94C207609187066695617070E0FA
:1011800080E20E94E20784E6F82E10E0C2E4D6E096
:1011900000E0E02EEF0C123011F1133069F1113044
:1011A000C9F0488159816A817B8123E08E2D0E949C
:1011B000C2070F5F2496033061F78AE0F80E1F5FC5
:1011C0008CE8F812E3CFDF91CF911F910F91FF9040
:1011D000EF9008954C855D856E857F85E6CF20E094
:1011E00030E041E655E4688D798D8A8D9B8D0E94B3
:1011F000E636AB01BC01D9CF4CA15DA16EA17FA1A8
:101200007058D3CF8DE50E946F060C94AA07CF9338
:10121000DF93CDB7DEB72C970FB6F894DEBF0FBEC5
:10122000CDBF8CEC91E00E949C0764E276E0CE0199
:1012300001960E946502CE0101960E945E078AE334
:101240000E946F06809136060E9477070E9402096D
:101250002C960FB6F894DEBF0FBECDBFDF91CF91B5
:10126000089590913206911105C0811104C04398F0
:1012700010923C06089586FFFBCF439AF9CF8093E6
:10128000B300811106C08091B0008F778093B000C9
:1012900008958091B0008068F9CFCF93DF93239AAF
:1012A000C0EBD0E083E0888384E08093B100259A8E
:1012B00020918306309184064091850650918606E0
:1012C00060917F06709180068091810690918206E0
:1012D0000E94E6359B01AC0160E070E08EE793E48C
:1012E0000E94E63660930001709301018093020131
:1012F0009093030188818F778883DF91CF91089540
:1013000068E176E08FEA96E00C946502E7EFF5E09D
:101310008CE1DF011D928A95E9F71092D5021092B7
:10132000F60581E08093D4021092D30208954F9283
:101330005F926F927F92AF92BF92CF92DF92EF92C5
:10134000FF920F931F93CF93DF93EC015C012CE08E
:10135000A20EB11C8C01C12CD12C7601F801419058
:101360005190619071908F0120E030E0A901C3019C
:10137000B2010E94DC36882371F0A3019201C301FF
:10138000B2010E943E399B01AC01C701B6010E9427
:10139000E7356B017C010A151B0501F7C701B60192
:1013A0000E94DD396B017C01AC019B0160E070E0C3
:1013B00080E89FE30E94E6362B013C016991799118
:1013C000899199915E01F4E0AF1AB108A3019201ED
:1013D0000E943E39F5016083718382839383C01735
:1013E000D10761F7C701B601DF91CF911F910F912E
:1013F000FF90EF90DF90CF90BF90AF907F906F9075
:101400005F904F9008954F925F926F927F928F926C
:101410009F92AF92BF92CF92DF92EF92FF926B01B9
:101420007C018090830690908406A0908506B09001
:10143000860640907F0650908006609081067090EE
:101440008206A3019201C501B4010E94FE3887FF04
:101450001BC060913A0670E090E080E00E949037F7
:101460002AE037ED43E25CE30E943E39A701960192
:101470000E943E396B017C01AC019B01C301B201AA
:101480000E94DC361816B4F040923E0650923F0699
:1014900060924006709241068FEFFF90EF90DF90D0
:1014A000CF90BF90AF909F908F907F906F905F9004
:1014B0004F900895A7019601C501B4010E94FE381E
:1014C00087FD1CC020E030E0A901C701B6010E94E1
:1014D000DC36811109C010923E0610923F06109230
:1014E000400610924106D9CF80923E0690923F0668
:1014F000A0924006B092410681E0CFCFC0923E0656
:10150000D0923F06E0924006F0924106A501940178
:10151000C701B6010E94E63520910001309101011A
:1015200040910201509103010E943E390E94CB3745
:1015300020E030E040E85FE30E94E7350E945F373B
:10154000862FABCF90913206911111C0811110C03E
:1015500010923E0610923F061092400610924106ED
:101560008091B0008F778093B00010923C06089570
:10157000803189F42D989091870691FF05C08032C3
:1015800019F440E050E0BA01CB01BA010E94030A0D
:101590000E943F09EACF2D9AEECF2F923F924F92B1
:1015A0005F926F927F928F929F92AF92BF92CF92F3
:1015B000DF92EF92FF920F931F93CF93DF93CDB7FC
:1015C000DEB7C254D1090FB6F894DEBF0FBECDBF4F
:1015D0003B010091F605202E312C22E3029FA00151
:1015E0001124BA016A527D4F7CAB6BABFB011192A7
:1015F0002A95E9F7F3012085FB01218BF301448152
:10160000558166817781EBA9FCA946A757A760ABF6
:1016100071AB21FFF0C02CE0E8E1F6E0DE01599665
:1016200001900D922A95E1F789AB9AAB22E436E05E
:1016300021963FAF2EAF2197BE01635F7F4F7EAFF4
:101640006DAFCE0149969CAF8BAFEBA9FCA9FAAF69
:10165000E9AF9E012B5D3F4F3EAB2DAB38AF2FABBB
:1016600010E082E3829D2001839D500C1124B20181
:101670006A527D4F2B01CB010C9623969FAF8EAF04
:10168000239790E1490E511CE9A9FAA96191719142
:1016900081919191FAABE9AB2196EEADFFAD219727
:1016A00081909190A190B1902196FFAFEEAF2197DC
:1016B000A50194010E943E390E940B39EDADFEADAB
:1016C0006193719381939193FEAFEDAFEBADFCAD60
:1016D000C190D190E190F190FCAFEBAF6C197D0916
:1016E0008E099F099B01AC0197FF07C02227332772
:1016F000A901261B370B480B590BE9ADFAAD219315
:10170000319341935193FAAFE9AF2396EEADFFAD1C
:101710002397C080D180E280F380C216D306E4060E
:10172000F50610F469017A012396EEADFFAD23971B
:10173000C082D182E282F3820E949037A501940197
:101740000E94E636EFA9F8AD61937193819391936E
:10175000F8AFEFAB20E030E0A9010E94DC3687FF54
:101760000BC094E0112321F090E4113009F490E1D2
:10177000F2018081892B80831F5F133009F084CFB1
:1017800080E0CD28CE28CF2809F4CBC0CE018596A5
:101790000E9497094B015C0122E3229DC001239D19
:1017A000900D11249C012A523D4F7901F901868E3A
:1017B000978EA0A2B1A2BE016B5D7F4F8AE596E035
:1017C0000E94F502F701628F738F848F958FBE019F
:1017D0006B5D7F4F8EE496E00E94F502F70166A3F1
:1017E00077A380A791A7118910FF09C062A773A7EB
:1017F00084A795A710C02CE0E7EFF5E00FCFF30129
:10180000208131814281538113FDA5C0F70122A7B8
:1018100033A744A755A78091D502081711F011FFEF
:10182000A0C082E3829DF001839DF00D1124EA5255
:10183000FD4F128A138A148A158A12A213A214A2C7
:1018400015A282E3829D8001839D100D11240A520E
:101850001D4FF801818981FD63C08BA99CA90E945D
:101860006D036B017C0180900F0690901006A09094
:101870001106B0901206AC019B01C501B4010E9493
:10188000DC3687FF36C1A5019401C501B4010E9471
:101890003E39F801668B778B808F918F82E3829D32
:1018A0008001839D100D11240A521D4FF80182A062
:1018B00093A0A4A0B5A0A501940166897789808D25
:1018C000918D0E94FE3818162CF4F801868A978AAA
:1018D000A08EB18EC0920F06D0921006E092110633
:1018E000F09212068CE0FE01B596A3E0B6E00190FE
:1018F0000D928A95E1F78CE0FE013D96A7EFB5E0E9
:1019000001900D928A95E1F78091D4028093F605BB
:101910008F5F803109F480E08093D4020E94C60476
:1019200081E0CE5BDF4F0FB6F894DEBF0FBECDBFB8
:10193000DF91CF911F910F91FF90EF90DF90CF90AB
:10194000BF90AF909F908F907F906F905F904F90DF
:101950003F902F900895C501B4010E943E39F701D0
:1019600045CF23E036E03AAB29AB8E010F5F1F4F26
:101970006DA97EA9645F7F4F7CAF6BAFC12CD12C6A
:1019800076010FAB19AFE9A9FAA981909190A190C6
:10199000B190FAABE9ABEDA9FEA9419051906190ED
:1019A0007190FEABEDABA3019201C501B4010E94A1
:1019B0003E399B01AC01C701B6010E94E6356B01BF
:1019C0007C01A5019401C301B2010E94E635F80132
:1019D00061937193819391938F012BAD3CAD6DA970
:1019E0007EA92617370779F62FEE3FEF4FE75FE323
:1019F000C701B6010E94FE3818164CF482E3829D9E
:101A0000F001839DF00D1124EA52FD4F16CF2FEE09
:101A10003FEF4FE75FEBC701B6010E94DC3687FF5F
:101A200011C082E3829DF001839DF00D1124EA52E2
:101A3000FD4F89E996E7A6E9BEE782A393A3A4A395
:101A4000B5A3FFCE8FA999AD0E9497096FA979AD73
:101A50008AE596E00E94F5024B015C01A701960120
:101A600060E070E080E89FE30E94E63520E030E02F
:101A700040E05FE30E943E390E94DD396B017C014A
:101A800020917706309178064091790650917A0638
:101A9000C501B4010E943E39A70196010E943E395A
:101AA0004B015C01A701960160E070E080E89FE3D4
:101AB0000E94E6359B01AC01C501B4010E94E636E7
:101AC0006B017C0120E030E0A9010E94DC3687FF39
:101AD00003C0C12CD12C760182E3829DF001839D4D
:101AE000F00D1124EA52FD4FC2A2D3A2E4A2F5A246
:101AF000A8CEA7019601C701B601C9CE80916F009B
:101B00008D7F80936F0080918100887F81608093BA
:101B100081001092F40180917506909131068F3FFB
:101B2000A1F420911406211110C0903881F490E0A6
:101B3000019778F481E09091870692FF02C091E0CE
:101B40008927882369F0289A0895943081F780E0E6
:101B5000F2CFEFE9FFE03197F1F700C00000E8CFE6
:101B600028980895CF93DF930E947E0DE1EAF2E07A
:101B700080E3DF011D928A95E9F7C5EFD1E083E2AA
:101B8000FE0111928A95E9F71092D2021092D102C9
:101B9000109218021092440281E080931902109270
:101BA000F4010E9431068091F3018F878BB1877514
:101BB0009091F201892B8BB98BB18B7A9091F301C3
:101BC000892B8BB9DF91CF9108958091130684FD05
:101BD0001FC080E10E9421028091B0008F77809326
:101BE000B000439890913106892F8C7221F4809136
:101BF0003506867069F0943049F48091140681119D
:101C000003C086E00E9411020C947E0D83E0FACF9F
:101C100008952F923F924F925F926F927F928F9290
:101C20009F92AF92BF92CF92DF92EF92FF920F936B
:101C30001F93CF93DF93CDB7DEB7C054D1090FB652
:101C4000F894DEBF0FBECDBF8091350680FD79C20E
:101C50009091180280911902981709F472C280912C
:101C6000D1029091D202892B09F07EC010913506E5
:101C700012FF81C28091F60522E3829FC0011124E8
:101C80008A529D4F9093D2028093D1024091D1020B
:101C90005091D2025A874987452B09F452C20091CC
:101CA000A20200FF6BC21092A2021092B402109224
:101CB000B5021092B6021092B702A985BA855A965B
:101CC0002D913D914D915C915D9729833A834B8392
:101CD0005C8360E070E080E09FE30E94E6366D8305
:101CE0007E838F839887E985FA85468C578C60A020
:101CF00071A082889388A488B58811FF2CC3F2E074
:101D0000F093B302A50194010E943E399B01AC01FE
:101D1000C301B2010E94E6356B017C0120E030E096
:101D2000A9010E94DC3687FF05C329813A814B81D6
:101D30005C81CA01B9010E94E735A30192010E94AA
:101D40003E399B01AC01C501B4010E94E6350E94F9
:101D5000DD396093C0027093C1028093C2029093F8
:101D6000C30218601093350680914402682E712CCE
:101D7000A7E0A69DF001A79DF00D1124E65EFD4FA2
:101D80008091A1028483E091D102F091D202FA8382
:101D9000E983F68DFEA3A981BA815F96BC91BFA3AA
:101DA000E981FA81F0A1F8A7A981BA819196BC9145
:101DB000B9A72091AF023091B0024091B102509189
:101DC000B2026EA17FA18F2F9B2F0E94E6356AABD6
:101DD0007BAB8CAB9DAB20E030E0A9010E94DC36F0
:101DE00087FF04C01AAA1BAA1CAA1DAAE091C4025C
:101DF000EE8BF091C502FF8B2091C602288F3091A7
:101E0000C702398F4091BC024E8F5091BD025F8F47
:101E10008091BE0288A39091BF0299A3A091C802AD
:101E2000AAA7B091C902BBA7E091CA02ECA7F091A2
:101E3000CB02FDA73090B8022090B9024090BA02C0
:101E40005090BB022091B3022D833091B4023EA783
:101E50004091B5024FA75091B60258AB8091B7029E
:101E600089AB9091C0029BAFA091C102ACAFB09181
:101E7000C202BDAFE091C302EEAF2AA53BA54CA5BF
:101E80005F2F6E897F89888D998D0E94DC36811144
:101E9000F1C3F2E0FEAB3EA139874FA14D8758A5B3
:101EA000598B89A58D8B8EE3C82E83ECD82E8EE2BC
:101EB000E82E89E3F82E1A8E1B8E1C8E1D8EA7012C
:101EC00096012AA33BA34CA35DA35D81513009F485
:101ED0004AC4A981BA81513008F4D8C3533009F0FB
:101EE0007CC45A962D913D914D915C915D97C701AF
:101EF000B6010E943E394B015C0120E030E040E039
:101F00005FE30E943E399B01AC01632D722DC2013B
:101F10000E94E635A70196010E943E396FAB78AF6B
:101F200089AF9AAF9B01AC0169857D8589899D89BF
:101F30000E94E6358B0121968FAF21979FAF2E89A6
:101F40003F89488D598D0E94DC3687FD0CC020E00A
:101F500030E0A9016FA978AD89AD9AAD0E94DC3659
:101F600018160CF477C42E893F89488D598D6EA1BF
:101F70007FA188A599A50E94E6359B01AC010E942E
:101F8000E7356B017C012E8D3F8D48A159A1632D52
:101F9000722DC2010E94E7359B01AC01C701B60159
:101FA0000E94E6366B017C013E8C2F8C48A059A024
:101FB0000E891F89B88D2196BFAF2197E98DEFAFAC
:101FC000F1E0FD83A70196016A8D7B8D8C8D9D8D3F
:101FD0000E94E7356A8F7B8F8C8F9D8F2AA13BA152
:101FE0004CA15DA10E94DC3687FF6AC42A8D3B8D1F
:101FF0004C8D5D8D6AA17BA18CA19DA10E94E635CF
:102000006B017C01980121964FAD21975FAD6EA5C4
:102010007FA588A999A90E94DC3687FD2EC3832D50
:10202000922DD2018093B8029093B902A093BA0284
:10203000B093BB02FD81F093B302E0914502F091B1
:1020400046028189811104C09091350693FF30C00A
:10205000A981BA8151969C915197907309F45FC4FC
:102060009E96CD90DD90ED90FC90D1978823A9F0BD
:102070002091CC023091CD024091CE025091CF02FE
:10208000632D722DC2010E943E399B01AC01C70134
:10209000B6010E943E396B017C01C701B6010E9466
:1020A000030A8093D00280913506877F809335069E
:1020B000B7E0B69DC001B79D900D1124FC01E65E0E
:1020C000FD4FFE83ED838091D00286832091AB0289
:1020D0003091AC024091AD025091AE02B801219610
:1020E0008FAD21979FAD0E943E391B012C010E94AC
:1020F000C5366B017C016091A7027091A8028091A6
:10210000A9029091AA020E94C5364B015C01A70169
:1021100096010E94E6350E945F3769837A838B833C
:102120009C83E981FA81AD81BE81ED93FC93EF2B15
:1021300009F000C48091350681FFFCC38160809363
:102140003506C05CDF4F0FB6F894DEBF0FBECDBFC3
:10215000DF91CF911F910F91FF90EF90DF90CF9083
:10216000BF90AF909F908F907F906F905F904F90B7
:102170003F902F9008950E94E00384CD8091A102AA
:102180008F5F853009F480E08093A102282F30E032
:1021900052E1859FC0011124DC01A95BBD4F7D0187
:1021A000B0934602A0934502E985FA85808950964E
:1021B0008C9390E080E04191519161917191D701B0
:1021C000A80FB91F689412F8440F551F661F771F98
:1021D0001694D1F74D935D936D937C93139704966A
:1021E0008C30910541F7A985BA851C966D917D913A
:1021F0008D919C911F97B2E1B29FA001B39F500DAA
:102200001124FA01E95BFD4F4B015C0123E0880CCE
:10221000991CAA1CBB1C2A95D1F784869586A68694
:10222000B7860E948E376093A7027093A8028093AE
:10223000A9029093AA02E985FA85268D378D40A1DF
:1022400051A10E94E6369B01AC012093AB02309372
:10225000AC024093AD025093AE0260E070E080EAC1
:102260009FE30E94E6366093AF027093B0028093C2
:10227000B1029093B2021092A3021092A4021092A3
:10228000A5021092A60211FD02C003FF42C0609198
:10229000C0027091C1028091C2029091C30260930A
:1022A000B8027093B9028093BA029093BB029B016B
:1022B000AC010E943E39A985BA8552966D937D93F3
:1022C0008D939C935597077F0093A202D701519657
:1022D0001C928091870681FFE8CCE985FA85818987
:1022E00085FFE3CC22A533A544A555A560E070E0A9
:1022F00080E89FE30E94E6366093CC027093CD02A3
:102300008093CE029093CF02E1E0D7015196EC93F7
:10231000CCCCE985FA8562897389848995890E9484
:10232000DD396093B8027093B9028093BA0290933A
:10233000BB02CCCFC092B402D092B502E092B602FA
:10234000F092B7021092C0021092C1021092C20223
:102350001092C30206CD1092B3024092C402509272
:10236000C5026092C6027092C70212FF6AC0109244
:10237000C0021092C1021092C2021092C302C12C7C
:10238000D12C760189859A850E946D03698B7A8BA1
:102390008B8B9C8B9B01AC010E943E3969877A87AD
:1023A0008B879C87A50194010E94DC3687FF93C030
:1023B00029853A854B855C85C501B4010E94E635C7
:1023C0002D813E814F8158850E943E399B01AC0191
:1023D000C301B2010E94E6356093C4027093C50246
:1023E0008093C6029093C70220E030E0A9010E94CA
:1023F000DC3618160CF449C032E03093B302298160
:102400003A814B815C81CA01B9010E94E735A30181
:1024100092010E943E399B01AC01C501B4010E94AA
:10242000E6350E94DD396093C0027093C10280934B
:10243000C2029093C3028091A20288608093A2029C
:1024400090CCE091D502EF5FE03109F4E0E08091BB
:10245000F605C12CD12C76018E1751F022E32E9F68
:10246000F0011124EA52FD4FC288D388E488F58830
:10247000C701B6010E94DD396093C0027093C102AA
:102480008093C2029093C3027DCFA7019601698514
:102490007A858B859C850E94E6352D813E814F8112
:1024A00058850E943E396093C8027093C902809398
:1024B000CA029093CB0289899A89AB89BC8980939F
:1024C000BC029093BD02A093BE02B093BF0293E002
:1024D0009093B30246CCA7019601C501B4010E94B6
:1024E000E6352D813E814F8158850E943E39A301FA
:1024F00092010E94E73520E030E040E05FE30E9477
:102500003E396D877E878F87988B20E030E0A90168
:102510000E94FE3818160CF094C0A30192016D853C
:102520007E858F8598890E94DC3687FF88C0A70149
:10253000960169857A858B859C850E94E6352D817B
:102540003E814F8158850E943E399B01AC0120930A
:10255000C8023093C9024093CA025093CB026D85E2
:102560007E858F8598890E94FE381816BCF52989CA
:102570003A894B895C892093BC023093BD02409319
:10258000BE025093BF02A501940169857A858B85AF
:102590009C850E94DC36811104C031E03093B30287
:1025A000E0CBA501940169857A858B859C850E9485
:1025B000E6352D813E814F8158850E943E399B0131
:1025C000AC01C301B2010E94E6356093C40270936E
:1025D000C5028093C6029093C702C3CB8D859E85AA
:1025E000AF85B8898093C4029093C502A093C602B8
:1025F000B093C7028093C8029093C902A093CA0205
:10260000B093CB0229813A814B815C81CA01B90127
:102610000E94E7352D853E854F8558890E943E39B9
:10262000A70196010E94E7350E94DD396093BC0244
:102630007093BD028093BE029093BF0292CB92E052
:1026400047CF8091C0029091C102A091C202B09187
:10265000C3021092C4021092C5021092C6021092D8
:10266000C7028093BC029093BD02A093BE02B093B8
:10267000BF0277CB21E02EAB0ECC09871D872196B8
:102680003FAD2197398B4FAD4D8B1FCC5A962D9175
:102690003D914D915C915D97C701B6010E943E3915
:1026A0004B015C0120E030E040E05FE30E943E39F6
:1026B000232D322DA2010E94E735A70196010E9429
:1026C0003E399B01AC0169857D8589899D890E9480
:1026D000E6358B0121968FAF21979FAF9B01AC010F
:1026E0006E897F89888D998D0E94FE38181684F531
:1026F0002E893F89488D598D6EA17FA188A599A506
:102700000E94E6359B01AC010E94E7356B017C011C
:102710002E8D3F8D48A159A1632D722DC2010E94BB
:10272000E7359B01AC01C701B6010E94E6366B019B
:102730007C01BEA9BD833E8C2F8C48A059A00E8978
:102740001F89E88D2196EFAF2197F98DFFAF3ACC25
:10275000A5019401632D722DC2010E94E735362E2A
:10276000272E2C012FCC2E8D3F8D48A159A1C701BA
:10277000B6010E943E399B01AC0169857D8589893E
:102780009D890E94E6358B0121968FAF21979FAFDF
:102790002AA53BA54CA55DA50E94DC3687FF12CC7F
:1027A0002AA53BA54CA55DA569857D8589899D895F
:1027B0000E94E6352E8D3F8D48A159A10E94E63634
:1027C0006B017C010AA51BA52CA521962FAF219793
:1027D0003DA53FAF42E04D83F5CB5A962D913D91FB
:1027E0004D915C915D97C701B6010E943E394B0146
:1027F0005C01AC019B01632D722DC2010E94FE3869
:10280000181684F520E030E040E05FE3C501B40134
:102810000E943E399B01AC01632D722DC2010E94C2
:10282000E635A70196010E943E399B01AC016985FE
:102830007D8589899D890E94E6358B0121968FAF20
:1028400021979FAF2EA53FA548A959A90E94FE3800
:10285000181644F4A5019401632D722DC2010E9443
:10286000E6357DCF2EA53FA548A959A969857D8567
:1028700089899D890E94E6359B01AC010E94E7355C
:102880006B017C012BAD3CAD4DAD5EAD632D722D6A
:10289000C2010E94E7359B01AC01C701B6010E944D
:1028A000E6366B017C013BAC2CAC4DAC5EAC0EA5AE
:1028B0001FA5B8A92196BFAF2197E9A9EFAF82CB99
:1028C0002AA93BA94CA95DA9B80121968FAD2197F2
:1028D0009FAD0E94FE3818169CF42EE333EC4EE2B6
:1028E00059E36AA17BA18CA19DA10E94E7356AA34F
:1028F0007BA38CA39DA32A8D3B8D4C8D5D8D7ECBC0
:10290000832D922DD2018093B8029093B902A093A7
:10291000BA02B093BB022D812093B3028ECB1092EA
:102920003E0610923F061092400610924106109209
:10293000D002B9CB2091A3023091A4024091A5020C
:102940005091A6026A8D7B8D8C8D9D8D0E94E735FE
:102950006D837E838F839887A2019101C501B401A5
:102960000E94E6359B01AC016D817E818F81988547
:102970000E94E6364B015C0120EC31EE44E65EE459
:102980000E943E390E94C5360E945F37603D37E0A5
:1029900073078105910508F066C047E0469DF00188
:1029A000479DF00D1124E65EFD4F1582A7E0A69D20
:1029B000F001A79DF00D1124E65EFD4F7383628345
:1029C00080911902809344028F5F863009F49DC084
:1029D00080931902E091D102F091D202C8012196B0
:1029E000AFAD2197BFAD868F978FA0A3B1A3C09243
:1029F000A702D092A802E092A902F092AA02A20134
:102A00009101C701B6010E94E635A50194010E941B
:102A10003E396093A3027093A4028093A502909321
:102A2000A6022091B4023091B5024091B6025091B5
:102A3000B702B80121968FAD21979FAD0E94DC3679
:102A4000811106C9F090350620E030E0A901B801F7
:102A500021968FAD21979FAD0E94FE3818160CF07D
:102A600057C08F2D6BCB603A5FE0750781059105EC
:102A700080F5A7E0A69DF001A79DF00D1124E65E6C
:102A8000FD4FB1E0B583A7E0A69DF001A79DF00D35
:102A90001124E65EFD4F2581022E04C09695879590
:102AA000779567950A94D2F749815A8102C0440FFD
:102AB000551F2A95E2F7518340836115710551E056
:102AC0008507910508F472CF2FEF3FEF3383228300
:102AD00077CF6034EFE17E078105910558F427E058
:102AE000269DF001279DF00D1124E65EFD4F32E09A
:102AF0003583C9CF47E0469DF001479DF00D112475
:102B0000E65EFD4F53E05583BECF1092190262CFAF
:102B1000F2FCA7CF1092D2021092D1029091D5026E
:102B20008091F605891709F493C881E0890F8031F7
:102B300009F480E02091D302921302C08093D30263
:102B40008093D50285C82F923F924F925F926F92E9
:102B50007F928F929F92AF92BF92CF92DF92EF922D
:102B6000FF920F931F93CF93DF93CDB7DEB7A49758
:102B70000FB6F894DEBF0FBECDBF1091140611231F
:102B800049F181E08093310686E691E00E949C073E
:102B9000812F0E9477070E94AA0785EF91E0019795
:102BA000E1F51150123088F485E792E00E949C070D
:102BB00083E692E00E949C070E94020980E10E9445
:102BC00017028091130684FFFCCF8FB7F894109200
:102BD00014068FBF10911306112309F4A9C214FF24
:102BE00023C081E080933206A4960FB6F894DEBF2E
:102BF0000FBECDBFDF91CF911F910F91FF90EF904E
:102C0000DF90CF90BF90AF909F908F907F906F900C
:102C10005F904F903F902F900895EFE9FFE031973C
:102C2000F1F700C00000BBCF10FFCDC08CE0E8E1A1
:102C3000F6E0DE01599601900D928A95E1F7BE010A
:102C4000675E7F4FCE010D960E9465028CE30E9465
:102C50006F0680913106883009F42FC108F00AC14F
:102C6000813009F433C108F423C1823009F431C141
:102C7000843009F428C180917606F82FF1709F2ED8
:102C800080FF3CC180913D06882309F437C182E969
:102C900091E00E949C07CE010D960E945E078091F4
:102CA000760681FF1DC086E891E00E949C07909106
:102CB000F6058091D502981708F46FC1815F891BD2
:102CC0000E9477078CE20E946F068091F10190913B
:102CD000F001981708F463C18058891B0E94770798
:102CE00081E891E00E949C07809131068C7709F47D
:102CF00058C16091B8027091B9028091BA02909166
:102D0000BB020E9442078CE20E946F0660913E0661
:102D100070913F06809140069091410640E00E94EC
:102D200098060E94BF02E82E0E94A102F82E06B16A
:102D300000728091170608278E2D8F29802B59F15C
:102D40008CE791E00E949C07002319F080E50E9427
:102D50006F06EE2079F0E0FE03C088E50E946F0662
:102D6000E1FE03C089E50E946F06E2FE03C08AE52A
:102D70000E946F06FF2079F0F0FE03C082E50E94FA
:102D80006F06F1FE03C088E40E946F06F2FE03C0E6
:102D900083E50E946F0680913D06882309F405C1F2
:102DA000815080933D0600913C06002309F416C132
:102DB000015000933C068EE30E946F060E94AA0712
:102DC00081E00E941702812F887E09F461C1809101
:102DD0003106982F937009F04AC18872A9F080914A
:102DE0003306807C89F40E94A20482E08093350639
:102DF00080913106803241F480E217FD0CC0809151
:102E0000330680688093330680913106811103C0B8
:102E100091E09093330616FF07C085FD05C09091A1
:102E2000330690649093330613FF05C0807E19F437
:102E300080E18093310615FF1AC185E792E00E9478
:102E40009C0781E292E00E949C070E940209809107
:102E5000330687FD07C190913106903409F0FFC019
:102E600083FF04C0837E82608093330680E4809376
:102E70003106F8C0803221F198F4803109F0FBCEA0
:102E80008091330687FD1CC08AEB91E00E949C076D
:102E90008091330680FF2EC080E30E946F06EBCE48
:102EA0008034D1F0803809F0E6CE89E991E002C0A3
:102EB00084EC91E00E949C07DECE80EC91E0FACF9A
:102EC00086EB91E0F7CF81EB91E0F4CF8BEA91E0D4
:102ED000F1CF85EA91E0EECF8FE991E00E949C0767
:102EE0008091330683FF02C083E3D7CF82FF04C003
:102EF00085FFD2CF81E3D1CF82E3CFCF4090D306FD
:102F00005090D4066090D5067090D6066BEBA62E36
:102F100066E0B62E9E012F5F3F4F6901CE010D96F0
:102F20007C0100E0F50161917191819191915F01C6
:102F300020853185428553850E94E735F6016193EE
:102F40007193819391936F01023041F4A301920137
:102F50000E94E73569877A878B879C87911012C01A
:102F6000F60134972081318142815381F7016081DC
:102F70007181828193810E94E635F70160837183BC
:102F8000828393830F5FF4E0EF0EF11C033051F660
:102F900091107DCE8BE891E07CCE815090CE815017
:102FA0009CCE60E070E0CB01ACCE809131068C7796
:102FB00099F08DE180933D0680913C06811103C01C
:102FC00081E080933C0686E791E00E949C07CE0159
:102FD00001960E945E07E7CE89E0ECCF8091310632
:102FE0008C77C1F183E180933C0681E791E00E94F8
:102FF0009C07809138060E9477078CE20E946F063A
:10300000809139060E9477078CE20E946F068091BA
:103010003A060E9477078091B000F12C87FF04C028
:103020002D9B1AC052E0F52E439BBCC101E08DE6FA
:1030300091E00E949C07FF2031F021E083E5F2122D
:1030400083E40E946F06002309F4B5CE86E40E9453
:103050006F06B1CE89E0C7CFFF24F394E5CF903857
:1030600009F004CF8091330680628093330617FF06
:103070000CC080913106813029F48091330685603F
:103080008093330680E88093310688EE0E94170211
:1030900011FF28C0812F887611F580913106803488
:1030A00041F48091330685FD04C084FFDFC0109297
:1030B000310680913106882309F4DEC084FF0FC0F9
:1030C0009091330690FF0BC0803109F0D5C08091FC
:1030D0003B06882309F4D0C0886080933B0682E0D9
:1030E0000E94170212FF24C090913306809131068E
:1030F000807D09F4DAC0809134068111D6C097FD35
:10310000D6C00E94A2048091D5028093D3020E946F
:10311000C6048091350681FF05C090913306916009
:1031200090933306897F8093350684E00E941702CE
:1031300090911506992309F44CC08FB7F89410921A
:1031400015068FBF40913806842F90FD84E691FDCF
:10315000865F92FD8A5093FD8F5F94FD8150893C7C
:1031600008F088EC8A3008F48AE030913906232F81
:1031700095FD24E696FD22E397FD29E1481302C060
:10318000231739F1809338062093390610923C06B4
:103190007090D5026090F605172D89E9282E96E7E4
:1031A000392E26E9422E3EE7532E42E3842E161195
:1031B00099C0C101D20180930F0690931006A0938D
:1031C0001106B09312060E94A2047092D3020E94CC
:1031D000C60490911606992309F440C08FB7F8945D
:1031E000109216068FBF20913A06822F90FD84E63A
:1031F00091FD865F92FD8A5093FD8F5F94FD815013
:10320000893C08F088EC8A3008F48AE0281749F0F5
:103210002091350628602093350680933A06109257
:103220003C068091310695FF09C0803139F4209128
:103230003B062111B1C022E020933B06907C71F047
:10324000882311F0887151F010919F0616FFA8C0D5
:103250001F7B812F0E94310910939F0680913106B8
:103260008C7F09F4C1CC0E94090EBECC82FF21CF15
:103270008860809333061DCF109235060E94E003CC
:10328000892B71F08091330686FD0AC010923306B7
:1032900088E0809331060E94090E0E944E061FCFDF
:1032A00010923306109231061ACF97FF0AC010927F
:1032B00035060E9486090E94B20D0E9480090E9474
:1032C0004B038091330685FF08C08F778160809320
:1032D000330680E48093310628CF10923306109293
:1032E000310623CFA12EB12C189DC00111248A5282
:1032F0009D4F0E946D03962EC72ED82E092F910147
:10330000A2010E94FE388A9C70018B9CF00C112453
:103310001816ACF5C7018A529D4F7C019101A2019C
:10332000B101C2010E943E39F701668B778B808F15
:10333000918F8A9CC0018B9C900D11249C012A5274
:103340003D4F7901F90122A033A044A055A0A2016C
:10335000910166897789808D918D0E94FE381816BB
:103360002CF4F701268A378A408E518E1F5F103168
:1033700009F410E0292C3C2C4D2C502E18CF97012D
:103380002A523D4F7901292D3C2D4D2D502F692D6D
:103390007C2D8D2D902FC6CF20FF50CF24604CCF99
:1033A000106457CFFF2009F406CD41CECF92DF92B3
:1033B000EF92FF921F93CF93DF930E94A31580910A
:1033C0003306882309F466C00E94E003009709F0E1
:1033D0003FC0C091A00680919F06C82BC090A20656
:1033E000D090A306E090A406F090A50680918706F1
:1033F00081FF03C080E20E94FF01DC2FD07311E047
:10340000C07480913306882309F444C09091320639
:10341000911140C080FF19C090913106292F207C66
:1034200009F485C082FD1BC010923B0640E050E0CD
:10343000BA0180E00E94A20A80E00E9431098091D6
:1034400033068D7F8460809333060E94A315D9CF05
:10345000FC01C189C6A4D7A4E0A8F1A8C7CF9038C1
:1034600021F585E792E00E949C078EED91E00E9495
:103470009C070E94020940E050E0BA0180E00E94EF
:10348000A20A80E00E9431090E947E0D80913206DE
:10349000882341F0DF91CF911F91FF90EF90DF9053
:1034A000CF9008950E94A315F1CF903419F48F7D29
:1034B000809333068091330683FFC7CF9091A00697
:1034C000992359F081FD09C08091870681FF22C0B0
:1034D0008091350688608093350680919F06882309
:1034E00071F08091330681FD0AC08C2F0E94310952
:1034F00041E060E070E080E89FE30E94CC1C809196
:10350000330681FDA2CF80618093330682E00E9462
:1035100021029BCFB701A6018D2F0E94A20A41E094
:1035200060E070E080E890E40E94CC1CD6CF8091EF
:103530003B068823C9F181FF0DC08091A006882336
:1035400051F140E050E0BA0180E00E94A20A1093DD
:103550003B067BCF8C7009F478CF8091A00688233E
:1035600099F085E792E00E949C0787EE91E00E9427
:103570009C070E9402098091870681FF0FC08091FD
:10358000350688608093350680913B0683FF03C033
:1035900082E00E94210210923B0657CFB701A6019C
:1035A0008D2F0E94A20AF0CF8091350683FF4DCF68
:1035B000B701A6018D2F0E94A20A80913506877F50
:1035C0008093350642CF2F923F924F925F926F9237
:1035D0007F928F929F92AF92BF92CF92DF92EF92A3
:1035E000FF920F931F93CF93DF93CDB7DEB7A297D0
:1035F0000FB6F894DEBF0FBECDBF782E8091320695
:10360000811114C19E01235F3F4F3A8F298F89E0BA
:10361000D9011D928A95E9F786E08D8BE2E4F6E008
:10362000FC8FEB8F7F01275F3F4F690110E000E0C7
:10363000812C912C5401872D90E09E8F8D8F802FAF
:1036400098E0002321F090E8013009F490E2D601DF
:103650009D936D01ED8DFE8D02C0F595E7958A95E0
:10366000E2F7E0FF1BC020E030E040EC5FEBD70169
:1036700094966D917D918D919C9197970E943E3982
:10368000362E472E582E692EA50194010E94DC3655
:1036900087FD04C0832C942CA52CB62C0F5F1F4FE4
:1036A000B4E0EB0EF11C0330110549F620908D06B5
:1036B00030908E0640908F065090900684E0682EE1
:1036C00001E068E176E0CE0101960E9465028091FA
:1036D0008806E82FF0E0FAA3E9A3FE01319628E17D
:1036E00036E038A32F8F6901F12C10E090E080E0E4
:1036F000B501A40170582D8D3E8D082E02C0359560
:1037000027950A94E2F720FF26C0F394D6011D9274
:103710001D921D921C92139729A13AA1082E02C056
:10372000359527950A94E2F720FF07C0002339F06A
:10373000408351836283738306C00023C9F3808270
:103740009182A282B382A6E1B0E0AC0FBD1FA80FA8
:10375000B91F2C91122B01963496B4E0CB0ED11CDC
:103760008330910541F66F2D70E090E080E00E947B
:103770008E370E94DD3910933706A20191010E9415
:103780003E396D877E878F87988BBE01635F7F4F41
:10379000CE0101960E94CD0AE4E0E09335060E9436
:1037A000090E0E944E060023E9F00E94BF02FE01AE
:1037B000769630E020E090E06191462F412359F069
:1037C000AC01022E02C0559547950A94E2F740FFDE
:1037D00002C0609516232F5F3F4F2330310561F7FC
:1037E000109337060E94090E80911306847309F422
:1037F000B3C01091130614FF03C086E00E941102AB
:1038000015FF03C087E00E9411020111C1C00E9490
:10381000BF02872119F088E00E94110280911406EE
:103820008823E9F00E94E50D0E94D619A2960FB6F2
:10383000F894DEBF0FBECDBFDF91CF911F910F91E6
:10384000FF90EF90DF90CF90BF90AF909F908F90C0
:103850007F906F905F904F903F902F90089584E0FD
:103860000E9417020E94B20D8091910690919206DB
:10387000019708F076C0E1E00E27C0909306D09043
:103880009406E0909506F0909606002309F470C027
:1038900020E030E040EA50E4C701B6010E943E3922
:1038A0004B015C012090890630908A0640908B067F
:1038B00050908C066A94611004CF20908806312CB9
:1038C0002601370177FA709477F8709410E000E0E1
:1038D0008D8D9E8D002E02C0959587950A94E2F7F6
:1038E00080FF26C0AB8DBC8D8D909D90AD90BC901F
:1038F0001397C101002E02C0959587950A94E2F7AF
:1039000080FF41C094962D913D914D915C91979788
:10391000C701B6010E94E735A50194010E943E3916
:103920000E940B39EF8DF8A16083718382839383AA
:103930000F5F1F4F2F8D38A12C5F3F4F38A32F8F64
:103940008B8D9C8D04969C8F8B8F0330110509F015
:10395000BFCF109235066ACF812F887A09F023CF26
:1039600081CFAFE9BFE01197F1F700C0000080CF31
:1039700020908D0630908E0640908F0650909006D5
:103980004601570197CFA5019401C301B201C6CFEB
:1039900012FF44CF89E040CF1F93CF93DF93142FC2
:1039A00020E030E040EA51E40E943E390E94C536F2
:1039B0000E945F37EB012097C9F080913206811198
:1039C00015C011110DC00E94D6192FEF80E792E0AB
:1039D000215080409040E1F700C000002197EBCFDC
:1039E0000E94A3158091330681FFEFCFDF91CF9125
:1039F0001F9108950E9467060E94D6198091320691
:103A0000811108C00E94E003892BB1F78091310633
:103A1000883091F30895CF93DF9391E5899FE0017A
:103A20001124DD5F40E550E0BE0181E197E00E9496
:103A30006004892B79F4109211070E94FA1C40E56A
:103A400050E061E177E0CE010E94100480E0DF9158
:103A5000CF91089581E0FBCF0E94FA1C10923D06A1
:103A600008950F931F93CF93C82F8B010E94FA1CC8
:103A70002DE0C29FC00111244CE050E0B8019E5FD0
:103A8000CF911F910F910C9410041F93CF93DF934C
:103A9000182FEB018DE0189FB00111247E5F4CE0E0
:103AA00050E0CE010E946004892B71F48CE0FE018D
:103AB00011928A95E9F7BE01812F0E94311D80E0A5
:103AC000DF91CF911F91089581E0FACFEF92FF929D
:103AD0000F931F93CF93DF93CDB7DEB72C970FB61D
:103AE000F894DEBF0FBECDBF182F80FFD5C08AE08F
:103AF0008093720689E18093750610927306109286
:103B0000740681E0809376068AE097EDA3E2BCE339
:103B10008093770690937806A0937906B0937A06FF
:103B20008FE692E1A3E0BBE380937B0690937C0653
:103B3000A0937D06B0937E0680E090E0AAE7B4E40F
:103B400080937F0690938006A0938106B0938206AF
:103B500010928306109284061092850610928606B3
:103B60001092880680E090E0A8ECB1E4809389068A
:103B700090938A06A0938B06B0938C0680E090E029
:103B8000AAEFB3E480938D0690938E06A0938F06E0
:103B9000B09390062AEF30E030939206209391067E
:103BA00040E050E060E87FE3409393065093940632
:103BB00060939506709396061092870640E050E059
:103BC0006AE773E4409342065093430660934406C9
:103BD0007093450640934606509347066093480607
:103BE0007093490640934A0650934B0660934C06E7
:103BF00070934D0680934E0690934F06A093500607
:103C0000B09351068093520690935306A0935406A6
:103C1000B09355068093560690935706A093580686
:103C2000B093590680E090EAACE0B7E480935A067E
:103C300090935B06A0935C06B0935D0680935E064E
:103C400090935F06A0936006B0936106809362062E
:103C500090936306A0936406B093650680E090E0BD
:103C6000A8E4B3EC8093660690936706A093680679
:103C7000B093690680936A0690936B06A0936C06D6
:103C8000B0936D0680936E0690936F06A0937006B6
:103C9000B09371060E944B0411FF10C0CE01019633
:103CA0007C018CE0F70111928A95E9F700E0B701F9
:103CB000802F0E94311D0F5F0830C9F712FF14C01A
:103CC00060E080E093E00E94F00360E081E093E038
:103CD0000E94F00360E081E593E00E94F00360E061
:103CE00082E593E00E94F00313FF0AC060E08EEAD1
:103CF00093E00E94F00360E08FEA93E00E94F003FB
:103D00002C960FB6F894DEBF0FBECDBFDF91CF91DA
:103D10001F910F91FF90EF900895CF92DF92EF9255
:103D2000FF92CF93C82F6A017B01809131068230C8
:103D300061F00E94FA1CB701A6018C2FCF91FF9071
:103D4000EF90DF90CF900C94A20ACF91FF90EF906C
:103D5000DF90CF900895FF920F931F93CF93DF933F
:103D60008C01EB018091870685FF23C0F09031061E
:103D700080E2F81611F1C8010E942A028823C9F0D6
:103D800081E08093340688E0F8120CC00E94210282
:103D90000E94D6198091320681110BC080913106A4
:103DA0008111F6CF0E94E50D82E00E9411020E946F
:103DB000D61980913106823041F10E94D619809146
:103DC0003206811122C09091D5028091D4029813BD
:103DD00003C00E946706F1CFBE01C8010E94CD0A50
:103DE000811113C08091870681FF0FC0888584FFF1
:103DF0000CC04C815D816E817F8180E1DF91CF912C
:103E00001F910F91FF900C948D1EDF91CF911F9108
:103E10000F91FF9008952F923F924F925F926F9271
:103E20007F928F929F92AF92BF92CF92DF92EF924A
:103E3000FF920F931F93CF93DF93CDB7DEB7CC5490
:103E4000D1090FB6F894DEBF0FBECDBFE7EDF6E0A7
:103E50008AE3DF011D928A95E9F78BE0E7E9F6E056
:103E6000A8EDB6E001900D928A95E1F780911107D7
:103E7000843209F46FC01A8E1BA2312C212C1EA68D
:103E80001DA610E01B8E1F8EEE24E394F12CAAE0F9
:103E9000AA2EB12CB1E68B2EB3E09B2E8A8DE82F93
:103EA000F0E0EF5EF84FD080D1105EC0BB8DBB2339
:103EB00029F0EF8DE11102C0F2E0FF8F25FE0FC067
:103EC0008091F4069091F506A091F606B091F70660
:103ED00081389649A849B10514F00C94B22C3BA145
:103EE000332309F482C220FE92C28091DA06813027
:103EF000B1F423E333E34BEC51E46091E3067091BA
:103F0000E4068091E5069091E6060E943E396093B2
:103F1000E3067093E4068093E5069093E60630FC92
:103F200010C08091A2069091A306A091A406B09122
:103F3000A5068093000790930107A0930207B09312
:103F400003078091D706843009F07CC226FC78C232
:103F50008CE10EC181E08093D8061092D90683E0EF
:103F60008A8FB1E0BBA389CF9FEB9D0D9A3110F0F2
:103F70000C94A02C8F5F8A8FBE016A5E7F4FCE01AA
:103F80004A960E945201882311F40C94A32C4E8867
:103F90005F88688C798CC301B2010E94213A0E942B
:103FA0005F37062F70E090E080E00E9490379B0121
:103FB000AC01C301B2010E94E63520E030E048ECDC
:103FC00052E40E943E390E94AB390E945F37CB0118
:103FD000E7E4DE1629F1FDE4DF1609F40AC1EAEB95
:103FE000ED0DE53108F02CC00E2E000CFF0BE55056
:103FF000F04E0C94893A4021202020206D21782118
:1040000083218E21202092212020A0212020AA215E
:10401000B421BE21202020202020CE21DB21E82138
:10402000083209F4DDC030F5043160F4013108F0E4
:1040300098C0043009F474C0B0F00A3009F468C0C4
:1040400084E196C00C3109F463C040F40631C0F736
:1040500025E1201B2093DA0626E087C00E3109F403
:1040600057C0063269F74F8D41110C94A62CA2E07F
:10407000AF8F28C00D3309F4AEC0E0F4053309F466
:104080004FC088F40B3211F00133D1F6BF8DB1115E
:104090000C94A62C013309F095C01092DD06E3E0E4
:1040A000EF8F28E04FC00C3358F606530093DE061E
:1040B00029E05BC00C3508F50A3508F073C00035FF
:1040C00009F0BECF0093D80621E0063209F04DC0BA
:1040D0008431910551F08E31910539F08832910586
:1040E00021F08233910509F0ABCFB5010E94533A1C
:1040F00066576093D80621E025C00C3549F00F358E
:1041000008F09ECF2EE5201B2093D90625E02DC078
:10411000009731F42F8D21110C94A62C31E03F8FA4
:104120000093D706202F2D7F2C3119F020E00C357D
:10413000E1F4009719F00A9709F082CF600F6093BD
:10414000D70620E0C70102C0880F991F2A95E2F721
:104150002DA53EA528233923232B09F443C085E14F
:1041600007C001510093DC0622E0892B59F387E157
:10417000C45BDF4F0FB6F894DEBF0FBECDBFDF913B
:10418000CF911F910F91FF90EF90DF90CF90BF9054
:10419000AF909F908F907F906F905F904F903F90E7
:1041A0002F900895892B29F40A550093DB0623E00C
:1041B000C9CF6A30710509F043CF0A3509F440CF01
:1041C00024E0C0CF0A9709F03BCFF1E0F093DD0681
:1041D00023E02F8F66CF892B09F032CF2AE0B2CFB0
:1041E00027E0C3CFADA5BEA5A82BB92BBEA7ADA711
:1041F00055CE892B09F0BBCF063050F4033098F030
:104200000430D9F080E10530C9F41092E10618C0FD
:10421000083008F415CF0A3048F10E3109F010CFFC
:104220000093DF0604C0002321F00130C9F78BE0C2
:1042300008C0B3E0B093DF06FACF80E28093E106D6
:104240008CE0F70102C0EE0FFF1F8A95E2F7CF0165
:104250002DA53EA52E233923232B09F080CF2DA594
:104260003EA52E2B392B3EA72DA718CE093029F0BD
:1042700080E48093E0068DE0E4CF1092E006FBCF6F
:104280004092E3065092E4066092E5067092E606DC
:1042900080E06701082E02C0CC0CDD1C0A94E2F716
:1042A000960122213321232B11F00C94AC2CD40144
:1042B00002C0B595A7958A95E2F7A0FF0BC020E054
:1042C00030E0A901C301B2010E94DC3687FF02C0C1
:1042D0000C94AF2C2C283D28E1CD4092E70650925B
:1042E000E8066092E9067092EA06116081E0D1CF9B
:1042F0004092EB065092EC066092ED067092EE064C
:10430000126082E0C6CF4092EF065092F0066092B3
:10431000F1067092F206146083E0BBCF0093F306BF
:1043200084E0B7CFC301B2010E9458376093F4060E
:104330007093F5068093F6069093F70685E0A9CF73
:104340004092F8065092F9066092FA067092FB06C7
:1043500086E09FCF4092FC065092FD066092FE06DA
:104360007092FF0687E095CF4092000750920107B8
:10437000609202077092030788E08BCF20E030E064
:104380004FE753E4C301B2010E94FE38181614F43B
:104390000C94A92C0093040789E07BCF4092050779
:1043A0005092060760920707709208073B8D3160B4
:1043B0003B8F8AE06ECF4092090750920A076092C5
:1043C0000B0770920C074B8D42604B8F8BE061CFD7
:1043D00040920D0750920E0760920F0770921007DF
:1043E0008B8D84608B8F8CE054CF8091D906813087
:1043F00081F44F8D423009F092CD8091D8068035FE
:1044000009F48DCD882309F48ACD20FC88CD86E17E
:10441000AFCE80919806811182CD20FC66CD80912F
:10442000A6069091A706A091A806B091A906809330
:10443000E3069093E406A093E506B093E6066FCDFD
:10444000E89426F88091DC06882359F0813009F43D
:10445000BBC022961FAE2297A2E0ABAFB1E0B9AFCE
:1044600007C082E022968FAF229791E09BAF19AEF2
:104470008091DA06813071F5E7EDCE2EE6E0DE2E92
:10448000F12CE12C2B8DA22EB12CC5010E2C02C0DB
:10449000959587950A94E2F780FF12C023E333E3F2
:1044A0004BEC51E4D6019E966D917D918D919C913E
:1044B000D1970E943E39F60166A777A780AB91ABF2
:1044C000FFEFEF1AFF0A24E0C20ED11C33E0E3161F
:1044D000F104D9F64F8D433049F48091DD068130E7
:1044E00029F48B8D843011F00C94B52C8CE0EBEB1F
:1044F000F6E0DE01119601900D928A95E1F7ADA5E7
:10450000BEA5B1FD69C00091D7060A3009F478C094
:104510000C3509F419C19F8D933009F43FC0AB8D60
:10452000AA23E1F1B091DB06BFA38091D30690915D
:10453000D406A091D506B091D60689A79AA7ABA7B5
:10454000BCA797E9A92E96E0B92E27EDC22E26E04A
:10455000D22EF12CE12C9B8D892E912CC4010E2C96
:1045600002C0959587950A94E2F780FD5DC1F5013B
:10457000808D918DA28DB38DF60186A797A7A0ABF4
:10458000B1ABFFEFEF1AFF0A24E0A20EB11C34E03A
:10459000C30ED11C43E0E416F10401F70E3109F417
:1045A00094C1053309F4B8C167EE76E086E00C31BA
:1045B00009F02DC10E94451D882301F18B8D8111C9
:1045C00088C119A61F8EA9C0E1E02296EFAF2297FD
:1045D0001BAEF2E0F9AF4CCF8091DE06873010F0D1
:1045E0008DE1C6CD90919D06891709F48CCFBE014F
:1045F0006F5F7F4F0E94451D811185CF87E0B8CD49
:10460000BB8DB11102C08AE1B3CDC101807599277C
:10461000892B09F49DCC6091F8067091F906809180
:10462000FA069091FB060E94213A0E945F3767309C
:10463000B8F68091F306843129F0823009F000CD7C
:1046400027FCFECC662309F474C0615069A767EEAD
:1046500076E089A50E94451D882381F20091F3062A
:104660004090D3065090D4066090D5067090D60640
:1046700077EDC72E76E0D72EF12CE12C3B8D232F42
:1046800030E038A72FA38FA198A50E2C02C09595D6
:1046900087950A94E2F780FF33C0D6019E968D90ED
:1046A0009D90AD90BC90D197043109F046C0F701C0
:1046B000EE0FFF1FEE0FFF1FE956F94F20A931A99A
:1046C00042A953A9608D718D828D938D0E94E6352C
:1046D000A50194010E94E635F601608B718B828BF7
:1046E000938BF2E0EF120CC0A30192010E94E63519
:1046F0006093EF067093F0068093F1069093F206B4
:10470000BFEFEB1AFB0AE4E0CE0ED11CF3E0EF168C
:10471000F10409F0B8CF2FEA22228091D8068FA3A6
:10472000803509F000C19B8D992309F406C18FE102
:104730001FCDE091DE06E9A78ACF50968D929D921B
:10474000AD92BC925397DCCF3B8D332309F45BCF02
:104750004090D3065090D4066090D5067090D6064F
:1047600047E9842E46E0942ECE0101967C0157ED58
:10477000A52E56E0B52ED12CC12CA32FB0E0B8A7A2
:10478000AFA38FA198A50C2C02C0959587950A948C
:10479000E2F780FF3EC0F7012081318142815381E1
:1047A000D40158966D917D918D919C915B970E945B
:1047B000E635F50126A537A540A951A90E94E635A1
:1047C000D5019E966D937D938D939C93D197B2E086
:1047D000CB120CC0A30192010E94E63560930D0735
:1047E00070930E0780930F0790931007FFEFCF1A77
:1047F000DF0A24E0820E911C34E0E30EF11C44E059
:10480000A40EB11C83E0C816D10409F0BACF19A6D2
:1048100084CFF40180A991A9A2A9B3A9F50186A723
:1048200097A7A0ABB1ABE2CF053309F4AACED6016E
:104830009E964D905D906D907C90D197BFA1B111E7
:1048400033C0F701EE0FFF1FEE0FFF1F21E030E036
:104850002C0F3D1FE20FF31FD501D0962D913D91F6
:104860004D915C91D39760817181828193810E9487
:10487000E735A30192010E94E735F60166A777A705
:1048800080AB91ABF2E0EF127CCE29A53AA54BA507
:104890005CA50E94E73560930D0770930E07809327
:1048A0000F07909310076DCEA3019201D501589682
:1048B0006D917D918D919C915B970E94E735F601FA
:1048C00066A777A780AB91AB5CCE67EE76E087E01A
:1048D00071CEA7E9B6E0E7EDF6E090E080E04B8D21
:1048E000242F30E0A901082E02C0559547950A945F
:1048F000E2F740FD0AC058964D915D916D917C9113
:104900005B97408B518B628B738B01961496349618
:104910008330910539F77BCF8091D806823008F437
:1049200076CF8EE125CCAF8DA23039F4BFA1B11185
:1049300073C0EB8DEE2309F48DC02BA12170EBA188
:10494000C101E0FFD8C28E7DFF8DF111937E892BCE
:1049500011F00C94BE2C8E01035F1F4F89E0D8012B
:104960001D928A95E9F7222309F4C8C28DA59EA558
:10497000867B892B11F00C94C12C8091D70685334E
:1049800019F081110C94C12C8091A2069091A3067C
:10499000A091A406B091A506898B9A8BAB8BBC8B9A
:1049A0008091A00690919F06892B4091E30650913B
:1049B000E4066091E5067091E6064D875E876F8795
:1049C000788B84608D8B8091870685FF06C085E09B
:1049D00097E00E942A028111D7C7B80185E097E0CD
:1049E0000E94AB1E8091310681110BC00E94E00332
:1049F000892B39F080E2809331060E94090E0E94D3
:104A00004E068CE0E5E0F7E0AFEAB6E001900D92EB
:104A10008A95E1F780E0ACCB20E030E0A90160911D
:104A2000E3067091E4068091E5069091E6060E9407
:104A3000DC36882309F4EBCCFFA1FC38B9F060F434
:104A4000F23059F1F33061F1F13009F076CF3B8D5E
:104A5000311173CF1F8E71CF2FA12E3839F018F07E
:104A60002F3809F06ACF9BA190619BA38FA18E582C
:104A7000823018F4ABA1A860ABA3BB8DBB2309F4B3
:104A8000C2CD4CE050E065E077E08FEA96E00E940E
:104A9000A93A892B09F051CF6DC04BA144604BA3BB
:104AA0008B8D882309F4AFCDB9ADAB2FB0E0BAAB95
:104AB000A9ABFBADEF2FF0E0FEABEDAB81E090E0FA
:104AC0007C0109AC02C0EE0CFF1C0A94E2F70BACAF
:104AD00002C0880F991F0A94E2F7E82AF92A2B8D61
:104AE000822F90E08E219F21892B09F441C7FD017F
:104AF000EE0FFF1FEE0FFF1FE952F94FAA0FBB1F6A
:104B0000AA0FBB1FA155B94F2D913D914D915C91BD
:104B100066A577A580A991A90E94E6352B013C01E5
:104B2000EDA9FEA9EE0FFF1FEE0FFF1FE952F94F8F
:104B3000ADA9BEA9AA0FBB1FAA0FBB1FA155B94F94
:104B40002D913D914D915C9166A577A580A991A984
:104B50000E94E6354B015C0127FEFFC0E89427F870
:104B60004CE050E065E077E08FEA96E00E94A93AD9
:104B7000892B11F481E2FCCA6091FC067091FD065C
:104B80008091FE069091FF062091DA06213071F4A3
:104B900023E333E34BEC51E40E943E396093FC067F
:104BA0007093FD068093FE069093FF068091FC06AD
:104BB0009091FD06A091FE06B091FF0621968CAF64
:104BC0009DAFAEAFBFAF2197A3019201C301B20168
:104BD0000E943E3929966CAF7DAF8EAF9FAF29976B
:104BE000A5019401C501B4010E943E392D966CAF18
:104BF0007DAF8EAF9FAF2D9720E030E040E850E4CE
:104C000021966CAD7DAD8EAD9FAD21970E943E3952
:104C100021962CAD3DAD4EAD5FAD21970E943E3942
:104C200029962CAD3DAD4EAD5FAD29970E94E6357E
:104C30002D962CAD3DAD4EAD5FAD2D970E94E63566
:104C40006B017C0120E030E0A9010E94DC3687FD89
:104C500092C6C701B6010E94DD396B017C012D9619
:104C60002CAD3DAD4EAD5FAD2D9729966CAD7DADB4
:104C70008EAD9FAD29970E94E7350E94DD399B01DB
:104C8000AC01C701B60190580E94E6366B017C0169
:104C90009FA1933021F4F7FAF094F7F8F09420E014
:104CA00030E0A90121966CAD7DAD8EAD9FAD219711
:104CB0000E94DC3687FF13C0F7FAF094F7F8F094FF
:104CC00021968CAD9DADAEADBFAD2197B058809310
:104CD000FC069093FD06A093FE06B093FF0609A97B
:104CE0001AA9000F111F000F111F0951194FA70119
:104CF0009601C501B4010E943E399B01AC01C3017C
:104D0000B2010E94E63520E030E040E05FE30E941F
:104D10003E39D8016D937D938D939C9313970DA984
:104D20001EA9000F111F000F111F0951194FA701D4
:104D30009601C301B2010E943E39A50194010E946F
:104D4000E73520E030E040E05FE30E943E39F801C3
:104D50006083718382839383F0CDC12ED12CE122B5
:104D6000FD2083E2EF2809F403CAF1EF2F2280919E
:104D7000DA06813041F507ED16E0F12CE12CC60191
:104D80000E2C02C0959587950A94E2F780FF12C019
:104D900023E333E34BEC51E4D80150966D917D91C0
:104DA0008D919C9153970E943E39F801608B718BD5
:104DB000828B938BFFEFEF1AFF0A0C5F1F4F23E0EC
:104DC000E216F104E1F6E9A9FAA9EE0FFF1FEE0FD2
:104DD000FF1FE951F94FC080D180E280F380A70125
:104DE0009601C301B2010E94E6352B013C01EDA9F9
:104DF000FEA9EE0FFF1FEE0FFF1FE951F94F808153
:104E00009181A281B38189AB9AABABABBCAB9C0166
:104E1000AD01C501B4010E94E6354B015C01A3015F
:104E20009201C301B2010E943E392B013C01A50150
:104E30009401C501B4010E943E399B01AC01C3013C
:104E4000B2010E94E7350E94DD394B015C01A701E8
:104E50009601C701B6010E943E396B017C0129A968
:104E60003AA94BA95CA9CA01B9010E943E399B012C
:104E7000AC01C701B6010E94E7350E94DD396B0124
:104E80007C01C092FC06D092FD06E092FE06F092F4
:104E9000FF06AC019B01C501B4010E94E6354B0140
:104EA0005C01E894B7F82AE037ED43EA5BE3C5011B
:104EB000B4010E94FE3818160CF03FCD20E030E01F
:104EC00040E05FE3C501B4010E94FE3818160CF4FF
:104ED00051CE2FE632E143E85AE3C701B6010E9402
:104EE0003E399B01AC01C501B4010E94FE38181681
:104EF0000CF023CD3FCE8E7D9C7F26CD8091870602
:104F0000F090A00681FF12C08FA18150833018F06D
:104F1000BBA1B064BBA3EB8DEE2309F445C1FF8DAB
:104F2000F23009F041C12BA120682BA38091F40637
:104F30009091F506A091F606B091F7068093AB0626
:104F40009093AC06A093AD06B093AE068091D906BF
:104F500080939806882311F088E08D8B8091E3067A
:104F60009091E406A091E506B091E6068093A6062E
:104F70009093A706A093A806B093A9068D879E8755
:104F8000AF87B88B8090000790900107A090020730
:104F9000B0900307A50194016091A2067091A30649
:104FA0008091A4069091A5060E94DC369BA1907486
:104FB000E92E811103C0ABA1A5FF1FC0FF2069F03E
:104FC000BBA1B7FD0AC040E050E0BA01E11002C049
:104FD000B501A4018F2D0E948D1E80910007909134
:104FE0000107A0910207B09103078093A206909356
:104FF000A306A093A406B093A506E1100CC080916F
:10500000A2069091A306A091A406B091A506898B53
:105010009A8BAB8BBC8B809104078093AA068091FE
:10502000E1069091A006981751F049895A896B8939
:105030007C890E948D1E8091E1068093A0068D8957
:105040009091A006892B8D8BF090E00680919F06B1
:105050008F1579F080913106823029F00E94FA1C78
:105060008F2D0E9431099091E0069111B4C01092E9
:105070009F068D8990919F06892B8D8B8091D706F5
:10508000843099F480913106823079F0C090F8062E
:10509000D090F906E090FA06F090FB060E94FA1C08
:1050A00040E0C701B6010E94CC1C8091DC068093D1
:1050B0009B068091DA0680939906EF8DE33071F5B7
:1050C0008091DD0680939C06811108C010920D0727
:1050D00010920E0710920F0710921007C0900D0744
:1050E000D0900E07E0900F07F0901007A7019601EF
:1050F0006091D3067091D4068091D5069091D60622
:105100000E94DC36882351F0C092D306D092D40698
:10511000E092D506F092D6060E942C1D8091DE0604
:1051200090919D06981769F080939D068CE0FE0192
:105130003196ABEBB6E001900D928A95E1F70E94B3
:105140002C1D8091DB0680939A068091D7068632CB
:1051500009F484C008F045C08C3109F465C08E3173
:1051600009F462C08A3009F449C08091D80680935E
:105170009706803509F44FC3BF8DB23009F04BC399
:10518000813009F07FC0BE01635F7F4F85E097E00B
:105190000E94AB1E8CE0E5E0F7E0AFEAB6E00190DC
:1051A0000D928A95E1F737C330E1F312BFCE9BA190
:1051B0009074809197068150833038F4992309F4D4
:1051C000B5CE4BA140624BA3B1CE9111AFCE8BA116
:1051D00080628BA3ABCE80919F06892B80939F0624
:1051E00048CF8C3509F440C0863609F443C0883274
:1051F00009F0BBCF6FEA76E087E033C067EE76E078
:1052000089A50E94311D80919D06F9A5F813ADCFA7
:105210008CE0E7EEF6E0ABEBB6E001900D928A95FC
:10522000E1F70E942C1DA1CF8D8981608D8B2F8D80
:10523000222329F0B80185E097E00E94AB1EB80157
:1052400087EE96E00E94AB1E8CE0E7EEF6E0AFEA58
:10525000B6E001900D928A95E1F787CF6FEA76E08C
:1052600086E00E94311D81CF8CE0E5E0F7E0A7ECFD
:10527000B6E0D3CFE7ECF6E08CE0DF011D928A9533
:10528000E9F7CFCF811105C08D8981608D8BB80181
:105290007DCF8250823008F097C28091FC069091B9
:1052A000FD06A091FE06B091FF068F8F98A3A9A3DB
:1052B000BAA3A9AD94E0A99F70011124F701E155AB
:1052C000F94FF8A7EFA397012951394F3AA729A71A
:1052D000D9014D905D906D907C902081318142810B
:1052E0005381C301B2010E94E7356DA77EA78FA746
:1052F00098ABEBADB4E0EB9F8001112498012155F0
:10530000394F3AAF29AFC8018951994F9CAF8BAF44
:10531000DC018D909D90AD90BC90F9012081318190
:1053200042815381C501B4010E94E73569AB7AAB74
:105330008BAB9CAB77FA709477F87094D501C4016D
:10534000B0588B8F9C8FAD8FBE8FF701EB5FF84FFE
:105350002DA53EA54FA558A96081718182819381B9
:105360000E94E6356B017C01F801EB5FF84F29A93B
:105370003AA94BA95CA960817181828193810E94C5
:10538000E6354B015C01A7019601C301B2010E9401
:105390003E396DAB7EAB8FAB98AFA50194016B8DA1
:1053A0007C8D8D8D9E8D0E943E399B01AC016DA937
:1053B0007EA98FA998AD0E94E7356DAB7EAB8FAB10
:1053C00098AFA5019401C301B2010E943E394B017F
:1053D0005C01A70196016B8D7C8D8D8D9E8D0E9449
:1053E0003E399B01AC01C501B4010E94E6352DA9EF
:1053F0003EA94FA958AD0E9466366B017C019BA166
:1054000092FF68C12DEB37E346E055EBC701B601CB
:105410000E94FE3887FD0AC02BED3FE049EC50E4C6
:10542000C701B6010E94E6356B017C0180907B06C6
:1054300090907C06A0907D06B0907E062F8D38A1BE
:1054400049A15AA1CA01B9010E94E735A5019401F9
:105450000E94E635A50194010E943E390E94DD3983
:105460004B015C0120E030E040E05FE3C701B601A2
:105470000E943E392F8D38A149A15AA10E943E3980
:105480009F77A50194010E94E6360E94CB370E94C7
:105490005F377EAB6DABDB01AB2B09F474CE1D899E
:1054A00090E080E00E948E374B015C0113FF0EC03C
:1054B000AC019B016D857E858F8598890E943E3960
:1054C0006D877E878F87988B177F1D8BA501940131
:1054D000C701B6010E94E6366BA37CA38DA39EA3F1
:1054E0002296EFAD2297B4E0EB9FC00111248C010E
:1054F0000155194F8B5F984FD8012D913D914D91DA
:105500005C91FC0160817181828193810E94E6350A
:10551000A50194010E94E63629966CAF7DAF8EAF4F
:105520009FAF29972BA13CA14DA15EA1CA01B90152
:105530000E943E399B01AC0160E070E080E090E4A5
:105540000E94E6356B017C012BEA3AEA4AE25EE30F
:105550006BA17CA18DA19EA10E943E394B015C01F3
:1055600020E030E040E850E4C701B6010E94E73592
:105570009B01AC01C501B4010E943E3921966CAF7C
:105580007DAF8EAF9FAF219720E030E040E05FE33A
:10559000C701B6010E943E3925966CAF7DAF8EAF34
:1055A0009FAF25971F8E22242394312CEDA9FEA9AD
:1055B000E215F30509F4E7CDFF8DFC3008F09EC03D
:1055C000A301920121966CAD7DAD8EAD9FAD21976B
:1055D0000E943E396B017C012B8D3C8D4D8D5E8D83
:1055E00025966CAD7DAD8EAD9FAD25970E943E3961
:1055F0009B01AC01C701B6010E94E7357B016C013C
:10560000A301920125966CAD7DAD8EAD9FAD259722
:105610000E943E394B015C012B8D3C8D4D8D5E8D82
:1056200021966CAD7DAD8EAD9FAD21970E943E3928
:105630009B01AC01C501B4010E94E6352B013C0180
:105640002F8D2F5F2F8F470156018B8E9C8EAD8E35
:10565000BE8EA30192016DA57EA58FA598A90E947B
:10566000E735EFA1F8A560837183828393832B8D47
:105670003C8D4D8D5E8D69A97AA98BA99CA90E944C
:10568000E735A9ADBAAD6D937D938D939C93139738
:1056900029962CAD3DAD4EAD5FAD2997F8016081E7
:1056A0007181828193810E94E735D8016D937D934A
:1056B0008D939C931397BE01635F7F4F8FEA96E0B3
:1056C0000E94AB1E80913206811164CDBFEF2B1A70
:1056D0003B0A6CCF2DEB37E346E055E3C701B6013B
:1056E0000E94DC3618160CF4A1CE2BED3FE049ECFD
:1056F00050E4C701B6010E94E73596CEB10190E0B3
:1057000080E00E948E372BA13CA14DA15EA10E949A
:105710003E396B017C010E94E1366B8F7C8F8D8F4F
:105720009E8FC701B6010E94CF394B015C01A9A52C
:10573000BAA5CD90DD90ED90FC90F7FAF094F7F8D3
:10574000F094ABADBCAD8D919D910D90BC91A02D11
:105750008F8F98A3A9A3BAA3A70196016B8D7C8D07
:105760008D8D9E8D0E943E392B013C012F8D38A1DD
:1057700049A15AA1C501B4010E943E399B01AC0167
:10578000C301B2010E94E7352B013C01A70196013C
:10579000C501B4010E943E396B017C012F8D38A1F7
:1057A00049A15AA16B8D7C8D8D8D9E8D0E943E39B5
:1057B0009B01AC01C701B6010E94E6356B8F7C8F5F
:1057C0008D8F9E8F1F8E45CF8D8984608D8B8091AC
:1057D0003106823009F4DECC0E94FA1C8091320638
:1057E000811119C0FBA1F071FF2E109236062BA17A
:1057F00023FB882780F90E94AD0286B180729091C8
:105800001706891719F184E00E9411020E94D61927
:1058100080E00E94AD028091DF0680939E0688237F
:1058200011F40C94B8200E94FA1C80919E0690916D
:105830003106833009F04DC0923029F088E00E9493
:1058400021020E94D61910929E06E4C8B80185E094
:1058500097E00E94AB1E81E08093300682E00E94B8
:1058600021020E94D619809132068111D4CF8091F5
:1058700031068111F6CF80913006813031F5FF205D
:1058800001F18CE0E8E1F6E0A4E2B6E001900D92CF
:105890008A95E1F71092300680E00E94AD020E94E6
:1058A000D6190E94B20D0E9486090E944B030E94E5
:1058B000070980913606882309F46CCC0E94800980
:1058C000AACF85E00E941102E5CF81E080933606E1
:1058D000E1CF81E08093970610929B0610929A0682
:1058E0001092980610929D061092A00610929F06A4
:1058F00084E6809338068093390680933A06923086
:10590000A1F06BEB76E080E00E94451D882311F446
:105910000C94FE220E942C1D40E050E0BA0180E071
:105920000E94A20A80E00E94310985E792E00E946D
:105930009C078CE092E00E949C070E94020983CFA2
:1059400081E00C94B82082E00C94B82088E10C949B
:10595000B82086E20C94B82089E10C94B82084E049
:105960000C94B8208BE10C94B82085E20C94B820FC
:1059700080E20C94B82082E20C94B82084E20C946B
:10598000B82080E10C94B8208FE00C94B820CF931D
:10599000DF93C0E08C2F0E940B1D811114C0109268
:1059A00011078EE30E946F060E948B068AE30E9415
:1059B0006F0687E00E94AE07C13019F4DF91CF91E6
:1059C0000895C1E0E7CF809111078823A9F30E94D1
:1059D0000B1FD82F8EE30E946F060E948B068AE36E
:1059E0000E946F068D2F0E94BA07E6CF1F920F927A
:1059F0000FB60F9211242F933F934F935F936F93A2
:105A00007F938F939F93AF93BF93EF93FF930E94E6
:105A1000A102882321F080FF13C00E94E50DFF91B1
:105A2000EF91BF91AF919F918F917F916F915F9116
:105A30004F913F912F910F900FBE0F901F9018958F
:105A400082FF06C080911306826080931306E7CF21
:105A500081FFE5CF809113068860F7CF1F920F92E8
:105A60000FB60F9211242F933F934F935F936F9331
:105A70007F938F939F93AF93BF93EF93FF93809107
:105A80003106813049F080911406811105C00E94D1
:105A9000E50D81E00E941102FF91EF91BF91AF915E
:105AA0009F918F917F916F915F914F913F912F9136
:105AB0000F900FBE0F901F9018951F920F920FB668
:105AC0000F9211248F939F939BB18091F201887A5A
:105AD0009775892B8BB915BC9F918F910F900FBE35
